{
  "contractName": "GameManager",
  "abi": [
    {
      "inputs": [],
      "stateMutability": "nonpayable",
      "type": "constructor"
    },
    {
      "anonymous": false,
      "inputs": [
        {
          "indexed": false,
          "internalType": "address",
          "name": "_player",
          "type": "address"
        },
        {
          "indexed": false,
          "internalType": "address",
          "name": "_gameAddress",
          "type": "address"
        }
      ],
      "name": "EventGameCreated",
      "type": "event"
    },
    {
      "inputs": [],
      "name": "highscoremanager",
      "outputs": [
        {
          "internalType": "contract HighscoreManager",
          "name": "",
          "type": "address"
        }
      ],
      "stateMutability": "view",
      "type": "function"
    },
    {
      "inputs": [
        {
          "internalType": "address",
          "name": "_winner",
          "type": "address"
        }
      ],
      "name": "enterWinner",
      "outputs": [],
      "stateMutability": "nonpayable",
      "type": "function"
    },
    {
      "inputs": [],
      "name": "getTop10",
      "outputs": [
        {
          "internalType": "address[10]",
          "name": "",
          "type": "address[10]"
        },
        {
          "internalType": "uint256[10]",
          "name": "",
          "type": "uint256[10]"
        }
      ],
      "stateMutability": "view",
      "type": "function"
    },
    {
      "inputs": [],
      "name": "startNewGame",
      "outputs": [],
      "stateMutability": "payable",
      "type": "function"
    }
  ],
  "bytecode": "0x6080604052348015600e575f5ffd5b5030604051601a90607d565b6022919060c5565b604051809103905ff080158015603a573d5f5f3e3d5ffd5b505f5f6101000a81548173ffffffffffffffffffffffffffffffffffffffff021916908373ffffffffffffffffffffffffffffffffffffffff16021790555060dc565b611a258061290883390190565b5f73ffffffffffffffffffffffffffffffffffffffff82169050919050565b5f60b182608a565b9050919050565b60bf8160a9565b82525050565b5f60208201905060d65f83018460b8565b92915050565b61281f806100e95f395ff3fe60806040526004361061003e575f3560e01c8063482d51e01461004257806384837ee11461004c578063d2add17b14610077578063fdd3c2451461009f575b5f5ffd5b61004a6100c9565b005b348015610057575f5ffd5b50610060610192565b60405161006e929190610544565b60405180910390f35b348015610082575f5ffd5b5061009d600480360381019061009891906105a4565b610238565b005b3480156100aa575f5ffd5b506100b361034a565b6040516100c0919061062a565b60405180910390f35b5f3430336040516100d99061036e565b6100e4929190610672565b6040518091039082f09050801580156100ff573d5f5f3e3d5ffd5b5090506001805f8373ffffffffffffffffffffffffffffffffffffffff1673ffffffffffffffffffffffffffffffffffffffff1681526020019081526020015f205f6101000a81548160ff0219169083151502179055507fffedcfc5617a2a5435647110e8c02752bcaae6960ff6df59d68f13d58f550ada3382604051610187929190610699565b60405180910390a150565b61019a61037b565b6101a261039e565b5f5f9054906101000a900473ffffffffffffffffffffffffffffffffffffffff1673ffffffffffffffffffffffffffffffffffffffff166384837ee16040518163ffffffff1660e01b815260040161028060405180830381865afa15801561020c573d5f5f3e3d5ffd5b505050506040513d601f19601f8201168201806040525081019061023091906108ea565b915091509091565b60015f3373ffffffffffffffffffffffffffffffffffffffff1673ffffffffffffffffffffffffffffffffffffffff1681526020019081526020015f205f9054906101000a900460ff166102c1576040517f08c379a00000000000000000000000000000000000000000000000000000000081526004016102b890610984565b60405180910390fd5b5f5f9054906101000a900473ffffffffffffffffffffffffffffffffffffffff1673ffffffffffffffffffffffffffffffffffffffff166307f9089c826040518263ffffffff1660e01b815260040161031a91906109a2565b5f604051808303815f87803b158015610331575f5ffd5b505af1158015610343573d5f5f3e3d5ffd5b5050505050565b5f5f9054906101000a900473ffffffffffffffffffffffffffffffffffffffff1681565b611e2e806109bc83390190565b604051806101400160405280600a90602082028036833780820191505090505090565b604051806101400160405280600a90602082028036833780820191505090505090565b5f600a9050919050565b5f81905092915050565b5f819050919050565b5f73ffffffffffffffffffffffffffffffffffffffff82169050919050565b5f610407826103de565b9050919050565b610417816103fd565b82525050565b5f610428838361040e565b60208301905092915050565b5f602082019050919050565b610449816103c1565b61045381846103cb565b925061045e826103d5565b805f5b8381101561048e578151610475878261041d565b965061048083610434565b925050600181019050610461565b505050505050565b5f600a9050919050565b5f81905092915050565b5f819050919050565b5f819050919050565b6104c5816104b3565b82525050565b5f6104d683836104bc565b60208301905092915050565b5f602082019050919050565b6104f781610496565b61050181846104a0565b925061050c826104aa565b805f5b8381101561053c57815161052387826104cb565b965061052e836104e2565b92505060018101905061050f565b505050505050565b5f610280820190506105585f830185610440565b6105666101408301846104ee565b9392505050565b5f604051905090565b5f5ffd5b610583816103fd565b811461058d575f5ffd5b50565b5f8135905061059e8161057a565b92915050565b5f602082840312156105b9576105b8610576565b5b5f6105c684828501610590565b91505092915050565b5f819050919050565b5f6105f26105ed6105e8846103de565b6105cf565b6103de565b9050919050565b5f610603826105d8565b9050919050565b5f610614826105f9565b9050919050565b6106248161060a565b82525050565b5f60208201905061063d5f83018461061b565b92915050565b61064c816103fd565b82525050565b5f61065c826103de565b9050919050565b61066c81610652565b82525050565b5f6040820190506106855f830185610643565b6106926020830184610663565b9392505050565b5f6040820190506106ac5f830185610643565b6106b96020830184610643565b9392505050565b5f5ffd5b5f601f19601f8301169050919050565b7f4e487b71000000000000000000000000000000000000000000000000000000005f52604160045260245ffd5b61070a826106c4565b810181811067ffffffffffffffff82111715610729576107286106d4565b5b80604052505050565b5f61073b61056d565b90506107478282610701565b919050565b5f67ffffffffffffffff821115610766576107656106d4565b5b602082029050919050565b5f5ffd5b5f815190506107838161057a565b92915050565b5f61079b6107968461074c565b610732565b905080602084028301858111156107b5576107b4610771565b5b835b818110156107de57806107ca8882610775565b8452602084019350506020810190506107b7565b5050509392505050565b5f82601f8301126107fc576107fb6106c0565b5b600a610809848285610789565b91505092915050565b5f67ffffffffffffffff82111561082c5761082b6106d4565b5b602082029050919050565b610840816104b3565b811461084a575f5ffd5b50565b5f8151905061085b81610837565b92915050565b5f61087361086e84610812565b610732565b9050806020840283018581111561088d5761088c610771565b5b835b818110156108b657806108a2888261084d565b84526020840193505060208101905061088f565b5050509392505050565b5f82601f8301126108d4576108d36106c0565b5b600a6108e1848285610861565b91505092915050565b5f5f610280838503121561090157610900610576565b5b5f61090e858286016107e8565b925050610140610920858286016108c0565b9150509250929050565b5f82825260208201905092915050565b7f4e6f7420616c6c6f77656420746f20656e746572206869676873636f7265732e5f82015250565b5f61096e60208361092a565b91506109798261093a565b602082019050919050565b5f6020820190508181035f83015261099b81610962565b9050919050565b5f6020820190506109b55f830184610643565b9291505056fe6080604052670de0b6b3a764000060015560b4601255604051611e2e380380611e2e83398181016040528101906100369190610199565b815f5f6101000a81548173ffffffffffffffffffffffffffffffffffffffff021916908373ffffffffffffffffffffffffffffffffffffffff16021790555060015434146100b9576040517f08c379a00000000000000000000000000000000000000000000000000000000081526004016100b090610257565b60405180910390fd5b8060025f6101000a81548173ffffffffffffffffffffffffffffffffffffffff021916908373ffffffffffffffffffffffffffffffffffffffff1602179055505050610275565b5f5ffd5b5f73ffffffffffffffffffffffffffffffffffffffff82169050919050565b5f61012d82610104565b9050919050565b61013d81610123565b8114610147575f5ffd5b50565b5f8151905061015881610134565b92915050565b5f61016882610104565b9050919050565b6101788161015e565b8114610182575f5ffd5b50565b5f815190506101938161016f565b92915050565b5f5f604083850312156101af576101ae610100565b5b5f6101bc8582860161014a565b92505060206101cd85828601610185565b9150509250929050565b5f82825260208201905092915050565b7f54686520616d6f756e74206f6620457468657220796f752073656e74206973205f8201527f6e6f7420656e6f7567682e000000000000000000000000000000000000000000602082015250565b5f610241602b836101d7565b915061024c826101e7565b604082019050919050565b5f6020820190508181035f83015261026e81610235565b9050919050565b611bac806102825f395ff3fe60806040526004361061007a575f3560e01c8063ae033dd01161004d578063ae033dd014610110578063cab896dc14610138578063d30895e414610162578063d4f77b1c1461018c5761007a565b8063216db3c21461007e5780633264a34b1461009457806359a5f12d146100be5780637d3f9074146100e8575b5f5ffd5b348015610089575f5ffd5b50610092610196565b005b34801561009f575f5ffd5b506100a86101c4565b6040516100b59190611553565b60405180910390f35b3480156100c9575f5ffd5b506100d261027b565b6040516100df919061158d565b60405180910390f35b3480156100f3575f5ffd5b5061010e600480360381019061010991906115e0565b6102a0565b005b34801561011b575f5ffd5b5061013660048036038101906101319190611648565b610aac565b005b348015610143575f5ffd5b5061014c610ccb565b604051610159919061168b565b60405180910390f35b34801561016d575f5ffd5b50610176610cd1565b604051610183919061158d565b60405180910390f35b610194610cf6565b005b42601154106101a3575f5ffd5b60075f9054906101000a900460ff166101ba575f5ffd5b6101c2610fc6565b565b6101cc611399565b6008600380602002604051908101604052809291905f905b828210156102725783826003020160038060200260405190810160405280929190826003801561025e576020028201915b815f9054906101000a900473ffffffffffffffffffffffffffffffffffffffff1673ffffffffffffffffffffffffffffffffffffffff1681526020019060010190808311610215575b5050505050815260200190600101906101e4565b50505050905090565b60035f9054906101000a900473ffffffffffffffffffffffffffffffffffffffff1681565b5f600390505f73ffffffffffffffffffffffffffffffffffffffff1660088460ff16600381106102d3576102d26116a4565b5b600302018360ff16600381106102ec576102eb6116a4565b5b015f9054906101000a900473ffffffffffffffffffffffffffffffffffffffff1673ffffffffffffffffffffffffffffffffffffffff161461032c575f5ffd5b60038360ff16106103405761033f6116d1565b5b8060ff168260ff1610610356576103556116d1565b5b60045f9054906101000a900473ffffffffffffffffffffffffffffffffffffffff1673ffffffffffffffffffffffffffffffffffffffff163373ffffffffffffffffffffffffffffffffffffffff16146103ae575f5ffd5b4260115410156103bc575f5ffd5b6004601481819054906101000a900460ff16809291906103db9061172b565b91906101000a81548160ff021916908360ff160217905550503360088460ff166003811061040c5761040b6116a4565b5b600302018360ff1660038110610425576104246116a4565b5b015f6101000a81548173ffffffffffffffffffffffffffffffffffffffff021916908373ffffffffffffffffffffffffffffffffffffffff1602179055505f5f90505b8160ff168160ff1610156105715760045f9054906101000a900473ffffffffffffffffffffffffffffffffffffffff1673ffffffffffffffffffffffffffffffffffffffff1660088260ff16600381106104c5576104c46116a4565b5b600302018460ff16600381106104de576104dd6116a4565b5b015f9054906101000a900473ffffffffffffffffffffffffffffffffffffffff1673ffffffffffffffffffffffffffffffffffffffff1603610571576001826105279190611753565b60ff168160ff16036105645761055d60045f9054906101000a900473ffffffffffffffffffffffffffffffffffffffff166111b3565b5050610aa8565b8080600101915050610468565b505f5f90505b8160ff168160ff1610156106805760045f9054906101000a900473ffffffffffffffffffffffffffffffffffffffff1673ffffffffffffffffffffffffffffffffffffffff1660088560ff16600381106105d4576105d36116a4565b5b600302018260ff16600381106105ed576105ec6116a4565b5b015f9054906101000a900473ffffffffffffffffffffffffffffffffffffffff1673ffffffffffffffffffffffffffffffffffffffff1603610680576001826106369190611753565b60ff168160ff16036106735761066c60045f9054906101000a900473ffffffffffffffffffffffffffffffffffffffff166111b3565b5050610aa8565b8080600101915050610577565b508160ff168360ff1603610798575f5f90505b8160ff168160ff1610156107965760045f9054906101000a900473ffffffffffffffffffffffffffffffffffffffff1673ffffffffffffffffffffffffffffffffffffffff1660088260ff16600381106106f0576106ef6116a4565b5b600302018260ff1660038110610709576107086116a4565b5b015f9054906101000a900473ffffffffffffffffffffffffffffffffffffffff1673ffffffffffffffffffffffffffffffffffffffff1603610796576001826107529190611753565b60ff168160ff16036107895761078860045f9054906101000a900473ffffffffffffffffffffffffffffffffffffffff166111b3565b5b8080600101915050610693565b505b6001816107a59190611753565b60ff1682846107b49190611787565b60ff16036108e3575f5f90505b8160ff168160ff1610156108e15760045f9054906101000a900473ffffffffffffffffffffffffffffffffffffffff1673ffffffffffffffffffffffffffffffffffffffff1660088260ff166003811061081e5761081d6116a4565b5b60030201826001856108309190611753565b61083a9190611753565b60ff166003811061084e5761084d6116a4565b5b015f9054906101000a900473ffffffffffffffffffffffffffffffffffffffff1673ffffffffffffffffffffffffffffffffffffffff16036108e1576001826108979190611753565b60ff168160ff16036108d4576108cd60045f9054906101000a900473ffffffffffffffffffffffffffffffffffffffff166111b3565b5050610aa8565b80806001019150506107c1565b505b6002816108f091906118ea565b60ff16600460149054906101000a900460ff1660ff16036109115750610aa8565b60025f9054906101000a900473ffffffffffffffffffffffffffffffffffffffff1673ffffffffffffffffffffffffffffffffffffffff1660045f9054906101000a900473ffffffffffffffffffffffffffffffffffffffff1673ffffffffffffffffffffffffffffffffffffffff16036109ec5760035f9054906101000a900473ffffffffffffffffffffffffffffffffffffffff1660045f6101000a81548173ffffffffffffffffffffffffffffffffffffffff021916908373ffffffffffffffffffffffffffffffffffffffff160217905550610a4e565b60025f9054906101000a900473ffffffffffffffffffffffffffffffffffffffff1660045f6101000a81548173ffffffffffffffffffffffffffffffffffffffff021916908373ffffffffffffffffffffffffffffffffffffffff1602179055505b7f637351f91da430278368fb3e486c8c3da47b2e6ce4d28b2c404cb044702ca7e160045f9054906101000a900473ffffffffffffffffffffffffffffffffffffffff16604051610a9e9190611970565b60405180910390a1505b5050565b5f60025f9054906101000a900473ffffffffffffffffffffffffffffffffffffffff1673ffffffffffffffffffffffffffffffffffffffff163373ffffffffffffffffffffffffffffffffffffffff1603610b9c575f60055411610b0e575f5ffd5b60055490505f6005819055508173ffffffffffffffffffffffffffffffffffffffff166108fc8290811502906040515f60405180830381858888f19350505050158015610b5d573d5f5f3e3d5ffd5b507f2a44162a2d5223e37cacacc3f626dcfee1396e0be3616534c5c7b718f786b6738282604051610b8f929190611989565b60405180910390a1610cc7565b60035f9054906101000a900473ffffffffffffffffffffffffffffffffffffffff1673ffffffffffffffffffffffffffffffffffffffff163373ffffffffffffffffffffffffffffffffffffffff1603610c8b575f60065411610bfd575f5ffd5b60065490505f6006819055508173ffffffffffffffffffffffffffffffffffffffff166108fc8290811502906040515f60405180830381858888f19350505050158015610c4c573d5f5f3e3d5ffd5b507f2a44162a2d5223e37cacacc3f626dcfee1396e0be3616534c5c7b718f786b6738282604051610c7e929190611989565b60405180910390a1610cc6565b6040517f08c379a0000000000000000000000000000000000000000000000000000000008152600401610cbd90611a0a565b60405180910390fd5b5b5050565b60015481565b60025f9054906101000a900473ffffffffffffffffffffffffffffffffffffffff1681565b5f73ffffffffffffffffffffffffffffffffffffffff1660035f9054906101000a900473ffffffffffffffffffffffffffffffffffffffff1673ffffffffffffffffffffffffffffffffffffffff1614610d5357610d526116d1565b5b60075f9054906101000a900460ff16610d6a575f5ffd5b5f151560075f9054906101000a900460ff16151514610d87575f5ffd5b6001543414610dcb576040517f08c379a0000000000000000000000000000000000000000000000000000000008152600401610dc290611a98565b60405180910390fd5b3360035f6101000a81548173ffffffffffffffffffffffffffffffffffffffff021916908373ffffffffffffffffffffffffffffffffffffffff1602179055507f31e760aa525306aba638a784082a013b6a1cc0a9a1789f3f22281c0453b10b1f60035f9054906101000a900473ffffffffffffffffffffffffffffffffffffffff16604051610e5b9190611970565b60405180910390a15f600243610e719190611ae3565b03610edc5760035f9054906101000a900473ffffffffffffffffffffffffffffffffffffffff1660045f6101000a81548173ffffffffffffffffffffffffffffffffffffffff021916908373ffffffffffffffffffffffffffffffffffffffff160217905550610f3e565b60025f9054906101000a900473ffffffffffffffffffffffffffffffffffffffff1660045f6101000a81548173ffffffffffffffffffffffffffffffffffffffff021916908373ffffffffffffffffffffffffffffffffffffffff1602179055505b600160075f6101000a81548160ff02191690831515021790555060125442610f669190611b13565b6011819055507f637351f91da430278368fb3e486c8c3da47b2e6ce4d28b2c404cb044702ca7e160045f9054906101000a900473ffffffffffffffffffffffffffffffffffffffff16604051610fbc9190611970565b60405180910390a1565b5f600247610fd49190611b46565b90505f151560025f9054906101000a900473ffffffffffffffffffffffffffffffffffffffff1673ffffffffffffffffffffffffffffffffffffffff166108fc8390811502906040515f60405180830381858888f19350505050151503611052578060055f8282546110469190611b13565b925050819055506110ad565b7f2a44162a2d5223e37cacacc3f626dcfee1396e0be3616534c5c7b718f786b67360025f9054906101000a900473ffffffffffffffffffffffffffffffffffffffff16826040516110a4929190611989565b60405180910390a15b5f151560035f9054906101000a900473ffffffffffffffffffffffffffffffffffffffff1673ffffffffffffffffffffffffffffffffffffffff166108fc8390811502906040515f60405180830381858888f19350505050151503611129578060065f82825461111d9190611b13565b92505081905550611184565b7f2a44162a2d5223e37cacacc3f626dcfee1396e0be3616534c5c7b718f786b67360035f9054906101000a900473ffffffffffffffffffffffffffffffffffffffff168260405161117b929190611989565b60405180910390a15b7f2207d46a2ba0f2acda06e9a222b40fd004e385738b3f868e63b2c0bfe4bc094c60405160405180910390a150565b5f60075f6101000a81548160ff0219169083151502179055505f5f9054906101000a900473ffffffffffffffffffffffffffffffffffffffff1673ffffffffffffffffffffffffffffffffffffffff1663d2add17b826040518263ffffffff1660e01b81526004016112259190611970565b5f604051808303815f87803b15801561123c575f5ffd5b505af115801561124e573d5f5f3e3d5ffd5b505050505f479050600115158273ffffffffffffffffffffffffffffffffffffffff166108fc8390811502906040515f60405180830381858888f193505050501515146113245760025f9054906101000a900473ffffffffffffffffffffffffffffffffffffffff1673ffffffffffffffffffffffffffffffffffffffff168273ffffffffffffffffffffffffffffffffffffffff1603611306578060055f8282546112fa9190611b13565b9250508190555061131f565b8060065f8282546113179190611b13565b925050819055505b61135e565b7f2a44162a2d5223e37cacacc3f626dcfee1396e0be3616534c5c7b718f786b6738282604051611355929190611989565b60405180910390a15b7f8245a3876d42d9b0bdb7f24184c03fc24e3d8a079f492b1ec9ceae70b366edf98260405161138d9190611970565b60405180910390a15050565b60405180606001604052806003905b6113b06113c6565b8152602001906001900390816113a85790505090565b6040518060600160405280600390602082028036833780820191505090505090565b5f60039050919050565b5f81905092915050565b5f819050919050565b5f60039050919050565b5f81905092915050565b5f819050919050565b5f73ffffffffffffffffffffffffffffffffffffffff82169050919050565b5f61144b82611422565b9050919050565b61145b81611441565b82525050565b5f61146c8383611452565b60208301905092915050565b5f602082019050919050565b61148d81611405565b611497818461140f565b92506114a282611419565b805f5b838110156114d25781516114b98782611461565b96506114c483611478565b9250506001810190506114a5565b505050505050565b5f6114e58383611484565b60608301905092915050565b5f602082019050919050565b611506816113e8565b61151081846113f2565b925061151b826113fc565b805f5b8381101561154b57815161153287826114da565b965061153d836114f1565b92505060018101905061151e565b505050505050565b5f610120820190506115675f8301846114fd565b92915050565b5f61157782611422565b9050919050565b6115878161156d565b82525050565b5f6020820190506115a05f83018461157e565b92915050565b5f5ffd5b5f60ff82169050919050565b6115bf816115aa565b81146115c9575f5ffd5b50565b5f813590506115da816115b6565b92915050565b5f5f604083850312156115f6576115f56115a6565b5b5f611603858286016115cc565b9250506020611614858286016115cc565b9150509250929050565b6116278161156d565b8114611631575f5ffd5b50565b5f813590506116428161161e565b92915050565b5f6020828403121561165d5761165c6115a6565b5b5f61166a84828501611634565b91505092915050565b5f819050919050565b61168581611673565b82525050565b5f60208201905061169e5f83018461167c565b92915050565b7f4e487b71000000000000000000000000000000000000000000000000000000005f52603260045260245ffd5b7f4e487b71000000000000000000000000000000000000000000000000000000005f52600160045260245ffd5b7f4e487b71000000000000000000000000000000000000000000000000000000005f52601160045260245ffd5b5f611735826115aa565b915060ff8203611748576117476116fe565b5b600182019050919050565b5f61175d826115aa565b9150611768836115aa565b9250828203905060ff811115611781576117806116fe565b5b92915050565b5f611791826115aa565b915061179c836115aa565b9250828201905060ff8111156117b5576117b46116fe565b5b92915050565b5f8160011c9050919050565b5f5f8291508390505b6001851115611810578086048111156117ec576117eb6116fe565b5b60018516156117fb5780820291505b8081029050611809856117bb565b94506117d0565b94509492505050565b5f8261182857600190506118e3565b81611835575f90506118e3565b816001811461184b576002811461185557611884565b60019150506118e3565b60ff841115611867576118666116fe565b5b8360020a91508482111561187e5761187d6116fe565b5b506118e3565b5060208310610133831016604e8410600b84101617156118b95782820a9050838111156118b4576118b36116fe565b5b6118e3565b6118c684848460016117c7565b925090508184048111156118dd576118dc6116fe565b5b81810290505b9392505050565b5f6118f4826115aa565b91506118ff836115aa565b925061190d60ff8484611819565b905092915050565b5f819050919050565b5f61193861193361192e84611422565b611915565b611422565b9050919050565b5f6119498261191e565b9050919050565b5f61195a8261193f565b9050919050565b61196a81611950565b82525050565b5f6020820190506119835f830184611961565b92915050565b5f60408201905061199c5f830185611961565b6119a9602083018461167c565b9392505050565b5f82825260208201905092915050565b7f496e76616c696420706c617965720000000000000000000000000000000000005f82015250565b5f6119f4600e836119b0565b91506119ff826119c0565b602082019050919050565b5f6020820190508181035f830152611a21816119e8565b9050919050565b7f54686520616d6f756e74206f6620457468657220796f752073656e74206973205f8201527f6e6f7420656e6f7567682e000000000000000000000000000000000000000000602082015250565b5f611a82602b836119b0565b9150611a8d82611a28565b604082019050919050565b5f6020820190508181035f830152611aaf81611a76565b9050919050565b7f4e487b71000000000000000000000000000000000000000000000000000000005f52601260045260245ffd5b5f611aed82611673565b9150611af883611673565b925082611b0857611b07611ab6565b5b828206905092915050565b5f611b1d82611673565b9150611b2883611673565b9250828201905080821115611b4057611b3f6116fe565b5b92915050565b5f611b5082611673565b9150611b5b83611673565b925082611b6b57611b6a611ab6565b5b82820490509291505056fea264697066735822122052baee4e661bdba566d3710a847947e8128dbf5897564b6a550a1f925153a57e64736f6c634300081e0033a26469706673582212201e77a87e641e37c454a59666539bd991ec5dc6af831e14c243e9eda5edc126ca64736f6c634300081e0033608060405234801561000f575f5ffd5b50604051611a25380380611a25833981810160405281019061003191906100d4565b805f5f6101000a81548173ffffffffffffffffffffffffffffffffffffffff021916908373ffffffffffffffffffffffffffffffffffffffff160217905550506100ff565b5f5ffd5b5f73ffffffffffffffffffffffffffffffffffffffff82169050919050565b5f6100a38261007a565b9050919050565b6100b381610099565b81146100bd575f5ffd5b50565b5f815190506100ce816100aa565b92915050565b5f602082840312156100e9576100e8610076565b5b5f6100f6848285016100c0565b91505092915050565b6119198061010c5f395ff3fe608060405234801561000f575f5ffd5b506004361061004a575f3560e01c806307f9089c1461004e57806326dd1bd01461006a57806384837ee1146100885780639ad0fe97146100a7575b5f5ffd5b610068600480360381019061006391906115fa565b6100da565b005b61007261131c565b60405161007f9190611634565b60405180910390f35b610090611341565b60405161009e9291906117a0565b60405180910390f35b6100c160048036038101906100bc91906115fa565b6114ec565b6040516100d194939291906117d8565b60405180910390f35b5f5f9054906101000a900473ffffffffffffffffffffffffffffffffffffffff1673ffffffffffffffffffffffffffffffffffffffff163373ffffffffffffffffffffffffffffffffffffffff1614610131575f5ffd5b60015f8273ffffffffffffffffffffffffffffffffffffffff1673ffffffffffffffffffffffffffffffffffffffff1681526020019081526020015f206002015f81548092919061018190611848565b91905055504260015f8373ffffffffffffffffffffffffffffffffffffffff1673ffffffffffffffffffffffffffffffffffffffff1681526020019081526020015f20600301819055507fb7a0060a2a287fabfa450394deba5f47c191e787c8f4c63e3f6e788d0678f0a38160015f8473ffffffffffffffffffffffffffffffffffffffff1673ffffffffffffffffffffffffffffffffffffffff1681526020019081526020015f206002015f81548092919061023d90611848565b9190505560405161024f92919061188f565b60405180910390a15f73ffffffffffffffffffffffffffffffffffffffff1660025f9054906101000a900473ffffffffffffffffffffffffffffffffffffffff1673ffffffffffffffffffffffffffffffffffffffff16036102f0578060025f6101000a81548173ffffffffffffffffffffffffffffffffffffffff021916908373ffffffffffffffffffffffffffffffffffffffff160217905550611319565b5f60025f9054906101000a900473ffffffffffffffffffffffffffffffffffffffff1690505f5b600a81116113165760015f8473ffffffffffffffffffffffffffffffffffffffff1673ffffffffffffffffffffffffffffffffffffffff1681526020019081526020015f206002015460015f8473ffffffffffffffffffffffffffffffffffffffff1673ffffffffffffffffffffffffffffffffffffffff1681526020019081526020015f2060020154111580156103db57508273ffffffffffffffffffffffffffffffffffffffff168273ffffffffffffffffffffffffffffffffffffffff1614155b15610cbf575f73ffffffffffffffffffffffffffffffffffffffff1660015f8573ffffffffffffffffffffffffffffffffffffffff1673ffffffffffffffffffffffffffffffffffffffff1681526020019081526020015f205f015f9054906101000a900473ffffffffffffffffffffffffffffffffffffffff1673ffffffffffffffffffffffffffffffffffffffff16146105ad5760015f8473ffffffffffffffffffffffffffffffffffffffff1673ffffffffffffffffffffffffffffffffffffffff1681526020019081526020015f206001015f9054906101000a900473ffffffffffffffffffffffffffffffffffffffff1660015f60015f8773ffffffffffffffffffffffffffffffffffffffff1673ffffffffffffffffffffffffffffffffffffffff1681526020019081526020015f205f015f9054906101000a900473ffffffffffffffffffffffffffffffffffffffff1673ffffffffffffffffffffffffffffffffffffffff1673ffffffffffffffffffffffffffffffffffffffff1681526020019081526020015f206001015f6101000a81548173ffffffffffffffffffffffffffffffffffffffff021916908373ffffffffffffffffffffffffffffffffffffffff1602179055505b5f73ffffffffffffffffffffffffffffffffffffffff1660015f8573ffffffffffffffffffffffffffffffffffffffff1673ffffffffffffffffffffffffffffffffffffffff1681526020019081526020015f206001015f9054906101000a900473ffffffffffffffffffffffffffffffffffffffff1673ffffffffffffffffffffffffffffffffffffffff161461077a5760015f8473ffffffffffffffffffffffffffffffffffffffff1673ffffffffffffffffffffffffffffffffffffffff1681526020019081526020015f205f015f9054906101000a900473ffffffffffffffffffffffffffffffffffffffff1660015f60015f8773ffffffffffffffffffffffffffffffffffffffff1673ffffffffffffffffffffffffffffffffffffffff1681526020019081526020015f206001015f9054906101000a900473ffffffffffffffffffffffffffffffffffffffff1673ffffffffffffffffffffffffffffffffffffffff1673ffffffffffffffffffffffffffffffffffffffff1681526020019081526020015f205f015f6101000a81548173ffffffffffffffffffffffffffffffffffffffff021916908373ffffffffffffffffffffffffffffffffffffffff1602179055505b8160015f8573ffffffffffffffffffffffffffffffffffffffff1673ffffffffffffffffffffffffffffffffffffffff1681526020019081526020015f205f015f6101000a81548173ffffffffffffffffffffffffffffffffffffffff021916908373ffffffffffffffffffffffffffffffffffffffff1602179055505f73ffffffffffffffffffffffffffffffffffffffff1660015f8473ffffffffffffffffffffffffffffffffffffffff1673ffffffffffffffffffffffffffffffffffffffff1681526020019081526020015f206001015f9054906101000a900473ffffffffffffffffffffffffffffffffffffffff1673ffffffffffffffffffffffffffffffffffffffff161415801561091d57508273ffffffffffffffffffffffffffffffffffffffff1660015f8473ffffffffffffffffffffffffffffffffffffffff1673ffffffffffffffffffffffffffffffffffffffff1681526020019081526020015f206001015f9054906101000a900473ffffffffffffffffffffffffffffffffffffffff1673ffffffffffffffffffffffffffffffffffffffff1614155b15610a045760015f8373ffffffffffffffffffffffffffffffffffffffff1673ffffffffffffffffffffffffffffffffffffffff1681526020019081526020015f206001015f9054906101000a900473ffffffffffffffffffffffffffffffffffffffff1660015f8573ffffffffffffffffffffffffffffffffffffffff1673ffffffffffffffffffffffffffffffffffffffff1681526020019081526020015f206001015f6101000a81548173ffffffffffffffffffffffffffffffffffffffff021916908373ffffffffffffffffffffffffffffffffffffffff160217905550610a83565b5f60015f8573ffffffffffffffffffffffffffffffffffffffff1673ffffffffffffffffffffffffffffffffffffffff1681526020019081526020015f206001015f6101000a81548173ffffffffffffffffffffffffffffffffffffffff021916908373ffffffffffffffffffffffffffffffffffffffff1602179055505b5f73ffffffffffffffffffffffffffffffffffffffff1660015f8473ffffffffffffffffffffffffffffffffffffffff1673ffffffffffffffffffffffffffffffffffffffff1681526020019081526020015f206001015f9054906101000a900473ffffffffffffffffffffffffffffffffffffffff1673ffffffffffffffffffffffffffffffffffffffff1614610bf2578260015f60015f8673ffffffffffffffffffffffffffffffffffffffff1673ffffffffffffffffffffffffffffffffffffffff1681526020019081526020015f206001015f9054906101000a900473ffffffffffffffffffffffffffffffffffffffff1673ffffffffffffffffffffffffffffffffffffffff1673ffffffffffffffffffffffffffffffffffffffff1681526020019081526020015f205f015f6101000a81548173ffffffffffffffffffffffffffffffffffffffff021916908373ffffffffffffffffffffffffffffffffffffffff1602179055505b8260015f8473ffffffffffffffffffffffffffffffffffffffff1673ffffffffffffffffffffffffffffffffffffffff1681526020019081526020015f206001015f6101000a81548173ffffffffffffffffffffffffffffffffffffffff021916908373ffffffffffffffffffffffffffffffffffffffff1602179055505f8103610cb8578260025f6101000a81548173ffffffffffffffffffffffffffffffffffffffff021916908373ffffffffffffffffffffffffffffffffffffffff1602179055505b5050611319565b5f73ffffffffffffffffffffffffffffffffffffffff1660015f8473ffffffffffffffffffffffffffffffffffffffff1673ffffffffffffffffffffffffffffffffffffffff1681526020019081526020015f205f015f9054906101000a900473ffffffffffffffffffffffffffffffffffffffff1673ffffffffffffffffffffffffffffffffffffffff16148015610d8457508273ffffffffffffffffffffffffffffffffffffffff168273ffffffffffffffffffffffffffffffffffffffff1614155b156112a2575f73ffffffffffffffffffffffffffffffffffffffff1660015f8573ffffffffffffffffffffffffffffffffffffffff1673ffffffffffffffffffffffffffffffffffffffff1681526020019081526020015f205f015f9054906101000a900473ffffffffffffffffffffffffffffffffffffffff1673ffffffffffffffffffffffffffffffffffffffff1614610f565760015f8473ffffffffffffffffffffffffffffffffffffffff1673ffffffffffffffffffffffffffffffffffffffff1681526020019081526020015f206001015f9054906101000a900473ffffffffffffffffffffffffffffffffffffffff1660015f60015f8773ffffffffffffffffffffffffffffffffffffffff1673ffffffffffffffffffffffffffffffffffffffff1681526020019081526020015f205f015f9054906101000a900473ffffffffffffffffffffffffffffffffffffffff1673ffffffffffffffffffffffffffffffffffffffff1673ffffffffffffffffffffffffffffffffffffffff1681526020019081526020015f206001015f6101000a81548173ffffffffffffffffffffffffffffffffffffffff021916908373ffffffffffffffffffffffffffffffffffffffff1602179055505b5f73ffffffffffffffffffffffffffffffffffffffff1660015f8573ffffffffffffffffffffffffffffffffffffffff1673ffffffffffffffffffffffffffffffffffffffff1681526020019081526020015f206001015f9054906101000a900473ffffffffffffffffffffffffffffffffffffffff1673ffffffffffffffffffffffffffffffffffffffff16146111235760015f8473ffffffffffffffffffffffffffffffffffffffff1673ffffffffffffffffffffffffffffffffffffffff1681526020019081526020015f205f015f9054906101000a900473ffffffffffffffffffffffffffffffffffffffff1660015f60015f8773ffffffffffffffffffffffffffffffffffffffff1673ffffffffffffffffffffffffffffffffffffffff1681526020019081526020015f206001015f9054906101000a900473ffffffffffffffffffffffffffffffffffffffff1673ffffffffffffffffffffffffffffffffffffffff1673ffffffffffffffffffffffffffffffffffffffff1681526020019081526020015f205f015f6101000a81548173ffffffffffffffffffffffffffffffffffffffff021916908373ffffffffffffffffffffffffffffffffffffffff1602179055505b8260015f8473ffffffffffffffffffffffffffffffffffffffff1673ffffffffffffffffffffffffffffffffffffffff1681526020019081526020015f205f015f6101000a81548173ffffffffffffffffffffffffffffffffffffffff021916908373ffffffffffffffffffffffffffffffffffffffff1602179055508160015f8573ffffffffffffffffffffffffffffffffffffffff1673ffffffffffffffffffffffffffffffffffffffff1681526020019081526020015f206001015f6101000a81548173ffffffffffffffffffffffffffffffffffffffff021916908373ffffffffffffffffffffffffffffffffffffffff1602179055505f60015f8573ffffffffffffffffffffffffffffffffffffffff1673ffffffffffffffffffffffffffffffffffffffff1681526020019081526020015f205f015f6101000a81548173ffffffffffffffffffffffffffffffffffffffff021916908373ffffffffffffffffffffffffffffffffffffffff1602179055505050611319565b80806112ad90611848565b91505060015f8373ffffffffffffffffffffffffffffffffffffffff1673ffffffffffffffffffffffffffffffffffffffff1681526020019081526020015f205f015f9054906101000a900473ffffffffffffffffffffffffffffffffffffffff169150610317565b50505b50565b60025f9054906101000a900473ffffffffffffffffffffffffffffffffffffffff1681565b611349611556565b611351611579565b611359611556565b611361611579565b5f60025f9054906101000a900473ffffffffffffffffffffffffffffffffffffffff1690505f5f90505b600a8110156114de57818482600a81106113a8576113a76118b6565b5b602002019073ffffffffffffffffffffffffffffffffffffffff16908173ffffffffffffffffffffffffffffffffffffffff168152505060015f8373ffffffffffffffffffffffffffffffffffffffff1673ffffffffffffffffffffffffffffffffffffffff1681526020019081526020015f20600201548382600a8110611433576114326118b6565b5b60200201818152505060015f8373ffffffffffffffffffffffffffffffffffffffff1673ffffffffffffffffffffffffffffffffffffffff1681526020019081526020015f205f015f9054906101000a900473ffffffffffffffffffffffffffffffffffffffff1691505f73ffffffffffffffffffffffffffffffffffffffff168273ffffffffffffffffffffffffffffffffffffffff1603156114de57808060010191505061138b565b508282945094505050509091565b6001602052805f5260405f205f91509050805f015f9054906101000a900473ffffffffffffffffffffffffffffffffffffffff1690806001015f9054906101000a900473ffffffffffffffffffffffffffffffffffffffff16908060020154908060030154905084565b604051806101400160405280600a90602082028036833780820191505090505090565b604051806101400160405280600a90602082028036833780820191505090505090565b5f5ffd5b5f73ffffffffffffffffffffffffffffffffffffffff82169050919050565b5f6115c9826115a0565b9050919050565b6115d9816115bf565b81146115e3575f5ffd5b50565b5f813590506115f4816115d0565b92915050565b5f6020828403121561160f5761160e61159c565b5b5f61161c848285016115e6565b91505092915050565b61162e816115bf565b82525050565b5f6020820190506116475f830184611625565b92915050565b5f600a9050919050565b5f81905092915050565b5f819050919050565b611673816115bf565b82525050565b5f611684838361166a565b60208301905092915050565b5f602082019050919050565b6116a58161164d565b6116af8184611657565b92506116ba82611661565b805f5b838110156116ea5781516116d18782611679565b96506116dc83611690565b9250506001810190506116bd565b505050505050565b5f600a9050919050565b5f81905092915050565b5f819050919050565b5f819050919050565b6117218161170f565b82525050565b5f6117328383611718565b60208301905092915050565b5f602082019050919050565b611753816116f2565b61175d81846116fc565b925061176882611706565b805f5b8381101561179857815161177f8782611727565b965061178a8361173e565b92505060018101905061176b565b505050505050565b5f610280820190506117b45f83018561169c565b6117c261014083018461174a565b9392505050565b6117d28161170f565b82525050565b5f6080820190506117eb5f830187611625565b6117f86020830186611625565b61180560408301856117c9565b61181260608301846117c9565b95945050505050565b7f4e487b71000000000000000000000000000000000000000000000000000000005f52601160045260245ffd5b5f6118528261170f565b91507fffffffffffffffffffffffffffffffffffffffffffffffffffffffffffffffff82036118845761188361181b565b5b600182019050919050565b5f6040820190506118a25f830185611625565b6118af60208301846117c9565b9392505050565b7f4e487b71000000000000000000000000000000000000000000000000000000005f52603260045260245ffdfea2646970667358221220ccc213ae06f6e404f6eb9076778a6b0036b1483b92429b154149ae8f8b4c9f3e64736f6c634300081e0033",
  "immutableReferences": {},
  "source": "pragma solidity ^0.8.30;\r\n\r\n// SPDX-License-Identifier: MIT\r\n\r\nimport {ThreeInARow} from \"./ThreeInARow.sol\";\r\nimport {HighscoreManager} from \"./HighscoreManager.sol\";\r\n\r\ncontract GameManager {\r\n\r\n    HighscoreManager public highscoremanager;\r\n\r\n    event EventGameCreated(address _player, address _gameAddress);\r\n\r\n    mapping(address => bool) allowedToEnterHighscore;\r\n\r\n    constructor() {\r\n        highscoremanager = new HighscoreManager(address(this));\r\n    }\r\n\r\n    modifier inGameHighscoreEditingOnly() {\r\n        require(allowedToEnterHighscore[msg.sender], \"Not allowed to enter highscores.\");\r\n        _;\r\n    }\r\n\r\n    function enterWinner(address _winner) public inGameHighscoreEditingOnly{\r\n        highscoremanager.addWin(_winner);\r\n    }\r\n\r\n    function getTop10() public view returns(address[10] memory, uint[10] memory) {\r\n        return highscoremanager.getTop10();\r\n    }\r\n\r\n    function startNewGame() public payable {\r\n        ThreeInARow threeInARow = (new ThreeInARow){value: msg.value}(address(this), payable (msg.sender));\r\n        allowedToEnterHighscore[address(threeInARow)] = true;\r\n        emit EventGameCreated(msg.sender, address(threeInARow));\r\n    }\r\n}",
  "sourcePath": "C:\\Users\\Lenovo\\OneDrive\\Desktop\\Solidity Codes\\contracts\\GameManager.sol",
  "compiler": {
    "name": "solc",
    "version": "0.8.30+commit.73712a01.Emscripten.clang"
  },
  "schemaVersion": "3.4.16",
  "updatedAt": "2025-06-21T08:05:04.069Z",
  "devdoc": {
    "kind": "dev",
    "methods": {},
    "version": 1
  },
  "userdoc": {
    "kind": "user",
    "methods": {},
    "version": 1
  }
}