{
  "contractName": "HighscoreManager",
  "abi": [
    {
      "inputs": [
        {
          "internalType": "address",
          "name": "_gameManager",
          "type": "address"
        }
      ],
      "stateMutability": "nonpayable",
      "type": "constructor"
    },
    {
      "anonymous": false,
      "inputs": [
        {
          "indexed": false,
          "internalType": "address",
          "name": "_for",
          "type": "address"
        },
        {
          "indexed": false,
          "internalType": "uint256",
          "name": "_totalWins",
          "type": "uint256"
        }
      ],
      "name": "NewWinAdded",
      "type": "event"
    },
    {
      "inputs": [],
      "name": "highscoreHolder",
      "outputs": [
        {
          "internalType": "address",
          "name": "",
          "type": "address"
        }
      ],
      "stateMutability": "view",
      "type": "function"
    },
    {
      "inputs": [
        {
          "internalType": "address",
          "name": "",
          "type": "address"
        }
      ],
      "name": "highscoreMapping",
      "outputs": [
        {
          "internalType": "address",
          "name": "lowerHighscoreAddress",
          "type": "address"
        },
        {
          "internalType": "address",
          "name": "higherHighscoreAddress",
          "type": "address"
        },
        {
          "internalType": "uint256",
          "name": "numberOfWins",
          "type": "uint256"
        },
        {
          "internalType": "uint256",
          "name": "timeOfLastWin",
          "type": "uint256"
        }
      ],
      "stateMutability": "view",
      "type": "function"
    },
    {
      "inputs": [
        {
          "internalType": "address",
          "name": "_for",
          "type": "address"
        }
      ],
      "name": "addWin",
      "outputs": [],
      "stateMutability": "nonpayable",
      "type": "function"
    },
    {
      "inputs": [],
      "name": "getTop10",
      "outputs": [
        {
          "internalType": "address[10]",
          "name": "",
          "type": "address[10]"
        },
        {
          "internalType": "uint256[10]",
          "name": "",
          "type": "uint256[10]"
        }
      ],
      "stateMutability": "view",
      "type": "function"
    }
  ],
  "bytecode": "0x608060405234801561000f575f5ffd5b50604051611a25380380611a25833981810160405281019061003191906100d4565b805f5f6101000a81548173ffffffffffffffffffffffffffffffffffffffff021916908373ffffffffffffffffffffffffffffffffffffffff160217905550506100ff565b5f5ffd5b5f73ffffffffffffffffffffffffffffffffffffffff82169050919050565b5f6100a38261007a565b9050919050565b6100b381610099565b81146100bd575f5ffd5b50565b5f815190506100ce816100aa565b92915050565b5f602082840312156100e9576100e8610076565b5b5f6100f6848285016100c0565b91505092915050565b6119198061010c5f395ff3fe608060405234801561000f575f5ffd5b506004361061004a575f3560e01c806307f9089c1461004e57806326dd1bd01461006a57806384837ee1146100885780639ad0fe97146100a7575b5f5ffd5b610068600480360381019061006391906115fa565b6100da565b005b61007261131c565b60405161007f9190611634565b60405180910390f35b610090611341565b60405161009e9291906117a0565b60405180910390f35b6100c160048036038101906100bc91906115fa565b6114ec565b6040516100d194939291906117d8565b60405180910390f35b5f5f9054906101000a900473ffffffffffffffffffffffffffffffffffffffff1673ffffffffffffffffffffffffffffffffffffffff163373ffffffffffffffffffffffffffffffffffffffff1614610131575f5ffd5b60015f8273ffffffffffffffffffffffffffffffffffffffff1673ffffffffffffffffffffffffffffffffffffffff1681526020019081526020015f206002015f81548092919061018190611848565b91905055504260015f8373ffffffffffffffffffffffffffffffffffffffff1673ffffffffffffffffffffffffffffffffffffffff1681526020019081526020015f20600301819055507fb7a0060a2a287fabfa450394deba5f47c191e787c8f4c63e3f6e788d0678f0a38160015f8473ffffffffffffffffffffffffffffffffffffffff1673ffffffffffffffffffffffffffffffffffffffff1681526020019081526020015f206002015f81548092919061023d90611848565b9190505560405161024f92919061188f565b60405180910390a15f73ffffffffffffffffffffffffffffffffffffffff1660025f9054906101000a900473ffffffffffffffffffffffffffffffffffffffff1673ffffffffffffffffffffffffffffffffffffffff16036102f0578060025f6101000a81548173ffffffffffffffffffffffffffffffffffffffff021916908373ffffffffffffffffffffffffffffffffffffffff160217905550611319565b5f60025f9054906101000a900473ffffffffffffffffffffffffffffffffffffffff1690505f5b600a81116113165760015f8473ffffffffffffffffffffffffffffffffffffffff1673ffffffffffffffffffffffffffffffffffffffff1681526020019081526020015f206002015460015f8473ffffffffffffffffffffffffffffffffffffffff1673ffffffffffffffffffffffffffffffffffffffff1681526020019081526020015f2060020154111580156103db57508273ffffffffffffffffffffffffffffffffffffffff168273ffffffffffffffffffffffffffffffffffffffff1614155b15610cbf575f73ffffffffffffffffffffffffffffffffffffffff1660015f8573ffffffffffffffffffffffffffffffffffffffff1673ffffffffffffffffffffffffffffffffffffffff1681526020019081526020015f205f015f9054906101000a900473ffffffffffffffffffffffffffffffffffffffff1673ffffffffffffffffffffffffffffffffffffffff16146105ad5760015f8473ffffffffffffffffffffffffffffffffffffffff1673ffffffffffffffffffffffffffffffffffffffff1681526020019081526020015f206001015f9054906101000a900473ffffffffffffffffffffffffffffffffffffffff1660015f60015f8773ffffffffffffffffffffffffffffffffffffffff1673ffffffffffffffffffffffffffffffffffffffff1681526020019081526020015f205f015f9054906101000a900473ffffffffffffffffffffffffffffffffffffffff1673ffffffffffffffffffffffffffffffffffffffff1673ffffffffffffffffffffffffffffffffffffffff1681526020019081526020015f206001015f6101000a81548173ffffffffffffffffffffffffffffffffffffffff021916908373ffffffffffffffffffffffffffffffffffffffff1602179055505b5f73ffffffffffffffffffffffffffffffffffffffff1660015f8573ffffffffffffffffffffffffffffffffffffffff1673ffffffffffffffffffffffffffffffffffffffff1681526020019081526020015f206001015f9054906101000a900473ffffffffffffffffffffffffffffffffffffffff1673ffffffffffffffffffffffffffffffffffffffff161461077a5760015f8473ffffffffffffffffffffffffffffffffffffffff1673ffffffffffffffffffffffffffffffffffffffff1681526020019081526020015f205f015f9054906101000a900473ffffffffffffffffffffffffffffffffffffffff1660015f60015f8773ffffffffffffffffffffffffffffffffffffffff1673ffffffffffffffffffffffffffffffffffffffff1681526020019081526020015f206001015f9054906101000a900473ffffffffffffffffffffffffffffffffffffffff1673ffffffffffffffffffffffffffffffffffffffff1673ffffffffffffffffffffffffffffffffffffffff1681526020019081526020015f205f015f6101000a81548173ffffffffffffffffffffffffffffffffffffffff021916908373ffffffffffffffffffffffffffffffffffffffff1602179055505b8160015f8573ffffffffffffffffffffffffffffffffffffffff1673ffffffffffffffffffffffffffffffffffffffff1681526020019081526020015f205f015f6101000a81548173ffffffffffffffffffffffffffffffffffffffff021916908373ffffffffffffffffffffffffffffffffffffffff1602179055505f73ffffffffffffffffffffffffffffffffffffffff1660015f8473ffffffffffffffffffffffffffffffffffffffff1673ffffffffffffffffffffffffffffffffffffffff1681526020019081526020015f206001015f9054906101000a900473ffffffffffffffffffffffffffffffffffffffff1673ffffffffffffffffffffffffffffffffffffffff161415801561091d57508273ffffffffffffffffffffffffffffffffffffffff1660015f8473ffffffffffffffffffffffffffffffffffffffff1673ffffffffffffffffffffffffffffffffffffffff1681526020019081526020015f206001015f9054906101000a900473ffffffffffffffffffffffffffffffffffffffff1673ffffffffffffffffffffffffffffffffffffffff1614155b15610a045760015f8373ffffffffffffffffffffffffffffffffffffffff1673ffffffffffffffffffffffffffffffffffffffff1681526020019081526020015f206001015f9054906101000a900473ffffffffffffffffffffffffffffffffffffffff1660015f8573ffffffffffffffffffffffffffffffffffffffff1673ffffffffffffffffffffffffffffffffffffffff1681526020019081526020015f206001015f6101000a81548173ffffffffffffffffffffffffffffffffffffffff021916908373ffffffffffffffffffffffffffffffffffffffff160217905550610a83565b5f60015f8573ffffffffffffffffffffffffffffffffffffffff1673ffffffffffffffffffffffffffffffffffffffff1681526020019081526020015f206001015f6101000a81548173ffffffffffffffffffffffffffffffffffffffff021916908373ffffffffffffffffffffffffffffffffffffffff1602179055505b5f73ffffffffffffffffffffffffffffffffffffffff1660015f8473ffffffffffffffffffffffffffffffffffffffff1673ffffffffffffffffffffffffffffffffffffffff1681526020019081526020015f206001015f9054906101000a900473ffffffffffffffffffffffffffffffffffffffff1673ffffffffffffffffffffffffffffffffffffffff1614610bf2578260015f60015f8673ffffffffffffffffffffffffffffffffffffffff1673ffffffffffffffffffffffffffffffffffffffff1681526020019081526020015f206001015f9054906101000a900473ffffffffffffffffffffffffffffffffffffffff1673ffffffffffffffffffffffffffffffffffffffff1673ffffffffffffffffffffffffffffffffffffffff1681526020019081526020015f205f015f6101000a81548173ffffffffffffffffffffffffffffffffffffffff021916908373ffffffffffffffffffffffffffffffffffffffff1602179055505b8260015f8473ffffffffffffffffffffffffffffffffffffffff1673ffffffffffffffffffffffffffffffffffffffff1681526020019081526020015f206001015f6101000a81548173ffffffffffffffffffffffffffffffffffffffff021916908373ffffffffffffffffffffffffffffffffffffffff1602179055505f8103610cb8578260025f6101000a81548173ffffffffffffffffffffffffffffffffffffffff021916908373ffffffffffffffffffffffffffffffffffffffff1602179055505b5050611319565b5f73ffffffffffffffffffffffffffffffffffffffff1660015f8473ffffffffffffffffffffffffffffffffffffffff1673ffffffffffffffffffffffffffffffffffffffff1681526020019081526020015f205f015f9054906101000a900473ffffffffffffffffffffffffffffffffffffffff1673ffffffffffffffffffffffffffffffffffffffff16148015610d8457508273ffffffffffffffffffffffffffffffffffffffff168273ffffffffffffffffffffffffffffffffffffffff1614155b156112a2575f73ffffffffffffffffffffffffffffffffffffffff1660015f8573ffffffffffffffffffffffffffffffffffffffff1673ffffffffffffffffffffffffffffffffffffffff1681526020019081526020015f205f015f9054906101000a900473ffffffffffffffffffffffffffffffffffffffff1673ffffffffffffffffffffffffffffffffffffffff1614610f565760015f8473ffffffffffffffffffffffffffffffffffffffff1673ffffffffffffffffffffffffffffffffffffffff1681526020019081526020015f206001015f9054906101000a900473ffffffffffffffffffffffffffffffffffffffff1660015f60015f8773ffffffffffffffffffffffffffffffffffffffff1673ffffffffffffffffffffffffffffffffffffffff1681526020019081526020015f205f015f9054906101000a900473ffffffffffffffffffffffffffffffffffffffff1673ffffffffffffffffffffffffffffffffffffffff1673ffffffffffffffffffffffffffffffffffffffff1681526020019081526020015f206001015f6101000a81548173ffffffffffffffffffffffffffffffffffffffff021916908373ffffffffffffffffffffffffffffffffffffffff1602179055505b5f73ffffffffffffffffffffffffffffffffffffffff1660015f8573ffffffffffffffffffffffffffffffffffffffff1673ffffffffffffffffffffffffffffffffffffffff1681526020019081526020015f206001015f9054906101000a900473ffffffffffffffffffffffffffffffffffffffff1673ffffffffffffffffffffffffffffffffffffffff16146111235760015f8473ffffffffffffffffffffffffffffffffffffffff1673ffffffffffffffffffffffffffffffffffffffff1681526020019081526020015f205f015f9054906101000a900473ffffffffffffffffffffffffffffffffffffffff1660015f60015f8773ffffffffffffffffffffffffffffffffffffffff1673ffffffffffffffffffffffffffffffffffffffff1681526020019081526020015f206001015f9054906101000a900473ffffffffffffffffffffffffffffffffffffffff1673ffffffffffffffffffffffffffffffffffffffff1673ffffffffffffffffffffffffffffffffffffffff1681526020019081526020015f205f015f6101000a81548173ffffffffffffffffffffffffffffffffffffffff021916908373ffffffffffffffffffffffffffffffffffffffff1602179055505b8260015f8473ffffffffffffffffffffffffffffffffffffffff1673ffffffffffffffffffffffffffffffffffffffff1681526020019081526020015f205f015f6101000a81548173ffffffffffffffffffffffffffffffffffffffff021916908373ffffffffffffffffffffffffffffffffffffffff1602179055508160015f8573ffffffffffffffffffffffffffffffffffffffff1673ffffffffffffffffffffffffffffffffffffffff1681526020019081526020015f206001015f6101000a81548173ffffffffffffffffffffffffffffffffffffffff021916908373ffffffffffffffffffffffffffffffffffffffff1602179055505f60015f8573ffffffffffffffffffffffffffffffffffffffff1673ffffffffffffffffffffffffffffffffffffffff1681526020019081526020015f205f015f6101000a81548173ffffffffffffffffffffffffffffffffffffffff021916908373ffffffffffffffffffffffffffffffffffffffff1602179055505050611319565b80806112ad90611848565b91505060015f8373ffffffffffffffffffffffffffffffffffffffff1673ffffffffffffffffffffffffffffffffffffffff1681526020019081526020015f205f015f9054906101000a900473ffffffffffffffffffffffffffffffffffffffff169150610317565b50505b50565b60025f9054906101000a900473ffffffffffffffffffffffffffffffffffffffff1681565b611349611556565b611351611579565b611359611556565b611361611579565b5f60025f9054906101000a900473ffffffffffffffffffffffffffffffffffffffff1690505f5f90505b600a8110156114de57818482600a81106113a8576113a76118b6565b5b602002019073ffffffffffffffffffffffffffffffffffffffff16908173ffffffffffffffffffffffffffffffffffffffff168152505060015f8373ffffffffffffffffffffffffffffffffffffffff1673ffffffffffffffffffffffffffffffffffffffff1681526020019081526020015f20600201548382600a8110611433576114326118b6565b5b60200201818152505060015f8373ffffffffffffffffffffffffffffffffffffffff1673ffffffffffffffffffffffffffffffffffffffff1681526020019081526020015f205f015f9054906101000a900473ffffffffffffffffffffffffffffffffffffffff1691505f73ffffffffffffffffffffffffffffffffffffffff168273ffffffffffffffffffffffffffffffffffffffff1603156114de57808060010191505061138b565b508282945094505050509091565b6001602052805f5260405f205f91509050805f015f9054906101000a900473ffffffffffffffffffffffffffffffffffffffff1690806001015f9054906101000a900473ffffffffffffffffffffffffffffffffffffffff16908060020154908060030154905084565b604051806101400160405280600a90602082028036833780820191505090505090565b604051806101400160405280600a90602082028036833780820191505090505090565b5f5ffd5b5f73ffffffffffffffffffffffffffffffffffffffff82169050919050565b5f6115c9826115a0565b9050919050565b6115d9816115bf565b81146115e3575f5ffd5b50565b5f813590506115f4816115d0565b92915050565b5f6020828403121561160f5761160e61159c565b5b5f61161c848285016115e6565b91505092915050565b61162e816115bf565b82525050565b5f6020820190506116475f830184611625565b92915050565b5f600a9050919050565b5f81905092915050565b5f819050919050565b611673816115bf565b82525050565b5f611684838361166a565b60208301905092915050565b5f602082019050919050565b6116a58161164d565b6116af8184611657565b92506116ba82611661565b805f5b838110156116ea5781516116d18782611679565b96506116dc83611690565b9250506001810190506116bd565b505050505050565b5f600a9050919050565b5f81905092915050565b5f819050919050565b5f819050919050565b6117218161170f565b82525050565b5f6117328383611718565b60208301905092915050565b5f602082019050919050565b611753816116f2565b61175d81846116fc565b925061176882611706565b805f5b8381101561179857815161177f8782611727565b965061178a8361173e565b92505060018101905061176b565b505050505050565b5f610280820190506117b45f83018561169c565b6117c261014083018461174a565b9392505050565b6117d28161170f565b82525050565b5f6080820190506117eb5f830187611625565b6117f86020830186611625565b61180560408301856117c9565b61181260608301846117c9565b95945050505050565b7f4e487b71000000000000000000000000000000000000000000000000000000005f52601160045260245ffd5b5f6118528261170f565b91507fffffffffffffffffffffffffffffffffffffffffffffffffffffffffffffffff82036118845761188361181b565b5b600182019050919050565b5f6040820190506118a25f830185611625565b6118af60208301846117c9565b9392505050565b7f4e487b71000000000000000000000000000000000000000000000000000000005f52603260045260245ffdfea2646970667358221220ccc213ae06f6e404f6eb9076778a6b0036b1483b92429b154149ae8f8b4c9f3e64736f6c634300081e0033",
  "immutableReferences": {},
  "source": "pragma solidity ^0.8.30;\r\n\r\n// SPDX-License-Identifier: MIT\r\n\r\ncontract HighscoreManager {\r\n    address gameManager;\r\n\r\n    event NewWinAdded(address _for, uint _totalWins);\r\n\r\n    constructor(address _gameManager) {\r\n        gameManager = _gameManager;\r\n    }\r\n\r\n    modifier onlyGameManager() {\r\n        require(msg.sender == gameManager);\r\n        _;\r\n    }\r\n\r\n    struct Highscore {\r\n        address lowerHighscoreAddress;\r\n        address higherHighscoreAddress;\r\n\r\n        uint numberOfWins;\r\n        uint timeOfLastWin;\r\n    }\r\n\r\n    mapping(address => Highscore) public highscoreMapping;\r\n    address public highscoreHolder;\r\n\r\n    function addWin(address _for) public onlyGameManager {\r\n        highscoreMapping[_for].numberOfWins++;\r\n        highscoreMapping[_for].timeOfLastWin = block.timestamp;\r\n\r\n        emit NewWinAdded(_for, highscoreMapping[_for].numberOfWins++);\r\n\r\n        if(highscoreHolder == address(0)) {\r\n            highscoreHolder = _for;\r\n            return;\r\n        }\r\n\r\n        address currentPosition = highscoreHolder;\r\n        uint count;\r\n        while(count <= 10) {\r\n\r\n            if(highscoreMapping[currentPosition].numberOfWins <= highscoreMapping[_for].numberOfWins && currentPosition != _for) {\r\n                //first detach the item\r\n                if(highscoreMapping[_for].lowerHighscoreAddress != address(0)) {\r\n                    highscoreMapping[highscoreMapping[_for].lowerHighscoreAddress].higherHighscoreAddress = highscoreMapping[_for].higherHighscoreAddress;\r\n                }\r\n\r\n                if(highscoreMapping[_for].higherHighscoreAddress != address(0)) {\r\n                    highscoreMapping[highscoreMapping[_for].higherHighscoreAddress].lowerHighscoreAddress = highscoreMapping[_for].lowerHighscoreAddress;\r\n                }\r\n\r\n                //assign the right upper and lower bounds\r\n                highscoreMapping[_for].lowerHighscoreAddress = currentPosition;\r\n                if(highscoreMapping[currentPosition].higherHighscoreAddress != address(0) &&  highscoreMapping[currentPosition].higherHighscoreAddress != _for) {\r\n                    highscoreMapping[_for].higherHighscoreAddress = highscoreMapping[currentPosition].higherHighscoreAddress;\r\n                } else {\r\n                    highscoreMapping[_for].higherHighscoreAddress = address(0);\r\n                }\r\n                \r\n                // re-attach the item inside the correct position\r\n                if(highscoreMapping[currentPosition].higherHighscoreAddress != address(0)) {\r\n                    highscoreMapping[highscoreMapping[currentPosition].higherHighscoreAddress].lowerHighscoreAddress = _for;\r\n                }\r\n                highscoreMapping[currentPosition].higherHighscoreAddress = _for;\r\n\r\n                // if necessary, assign new highscore holder\r\n                if(count == 0) {\r\n                    highscoreHolder = _for;\r\n                }\r\n                return;\r\n            }\r\n\r\n            if(highscoreMapping[currentPosition].lowerHighscoreAddress == address(0) && currentPosition != _for) {\r\n                if(highscoreMapping[_for].lowerHighscoreAddress != address(0)) {\r\n                    highscoreMapping[highscoreMapping[_for].lowerHighscoreAddress].higherHighscoreAddress = highscoreMapping[_for].higherHighscoreAddress;\r\n                }\r\n\r\n                if(highscoreMapping[_for].higherHighscoreAddress != address(0)) {\r\n                    highscoreMapping[highscoreMapping[_for].higherHighscoreAddress].lowerHighscoreAddress = highscoreMapping[_for].lowerHighscoreAddress;\r\n                }\r\n\r\n                highscoreMapping[currentPosition].lowerHighscoreAddress = _for;\r\n                highscoreMapping[_for].higherHighscoreAddress = currentPosition;\r\n                highscoreMapping[_for].lowerHighscoreAddress = address(0);\r\n                return;\r\n            }\r\n\r\n            count ++;\r\n            currentPosition = highscoreMapping[currentPosition].lowerHighscoreAddress;\r\n        }\r\n    }\r\n\r\n    function getTop10() public view returns(address[10] memory, uint[10] memory) {\r\n        address[10] memory topTenAddresses;\r\n        uint[10] memory topTenWins;\r\n\r\n        address currentPosition = highscoreHolder;\r\n        for(uint i = 0; i < 10; i++) {\r\n            topTenAddresses[i] = currentPosition;\r\n            topTenWins[i] = highscoreMapping[currentPosition].numberOfWins;\r\n            currentPosition = highscoreMapping[currentPosition].lowerHighscoreAddress;\r\n\r\n            if(currentPosition == address(0)) {\r\n                break;\r\n            }\r\n        }\r\n\r\n\r\n        return(topTenAddresses, topTenWins);\r\n    }\r\n}",
  "sourcePath": "C:\\Users\\Lenovo\\OneDrive\\Desktop\\Solidity Codes\\contracts\\HighscoreManager.sol",
  "compiler": {
    "name": "solc",
    "version": "0.8.30+commit.73712a01.Emscripten.clang"
  },
  "schemaVersion": "3.4.16",
  "updatedAt": "2025-06-21T08:05:04.082Z",
  "devdoc": {
    "kind": "dev",
    "methods": {},
    "version": 1
  },
  "userdoc": {
    "kind": "user",
    "methods": {},
    "version": 1
  }
}