{
  "contractName": "ThreeInARow",
  "abi": [
    {
      "inputs": [
        {
          "internalType": "address",
          "name": "_addrGameManager",
          "type": "address"
        },
        {
          "internalType": "address payable",
          "name": "_player1",
          "type": "address"
        }
      ],
      "stateMutability": "payable",
      "type": "constructor"
    },
    {
      "anonymous": false,
      "inputs": [],
      "name": "GameOverWithDraw",
      "type": "event"
    },
    {
      "anonymous": false,
      "inputs": [
        {
          "indexed": false,
          "internalType": "address",
          "name": "_winner",
          "type": "address"
        }
      ],
      "name": "GameOverWithWin",
      "type": "event"
    },
    {
      "anonymous": false,
      "inputs": [
        {
          "indexed": false,
          "internalType": "address",
          "name": "_player",
          "type": "address"
        }
      ],
      "name": "NextPlayer",
      "type": "event"
    },
    {
      "anonymous": false,
      "inputs": [
        {
          "indexed": false,
          "internalType": "address",
          "name": "_receiver",
          "type": "address"
        },
        {
          "indexed": false,
          "internalType": "uint256",
          "name": "_amountInWei",
          "type": "uint256"
        }
      ],
      "name": "PayoutSuccess",
      "type": "event"
    },
    {
      "anonymous": false,
      "inputs": [
        {
          "indexed": false,
          "internalType": "address",
          "name": "_player",
          "type": "address"
        }
      ],
      "name": "PlayerJoined",
      "type": "event"
    },
    {
      "inputs": [],
      "name": "gameCost",
      "outputs": [
        {
          "internalType": "uint256",
          "name": "",
          "type": "uint256"
        }
      ],
      "stateMutability": "view",
      "type": "function"
    },
    {
      "inputs": [],
      "name": "player1",
      "outputs": [
        {
          "internalType": "address payable",
          "name": "",
          "type": "address"
        }
      ],
      "stateMutability": "view",
      "type": "function"
    },
    {
      "inputs": [],
      "name": "player2",
      "outputs": [
        {
          "internalType": "address payable",
          "name": "",
          "type": "address"
        }
      ],
      "stateMutability": "view",
      "type": "function"
    },
    {
      "inputs": [],
      "name": "joinGame",
      "outputs": [],
      "stateMutability": "payable",
      "type": "function"
    },
    {
      "inputs": [],
      "name": "getBoard",
      "outputs": [
        {
          "internalType": "address[3][3]",
          "name": "",
          "type": "address[3][3]"
        }
      ],
      "stateMutability": "view",
      "type": "function"
    },
    {
      "inputs": [
        {
          "internalType": "uint8",
          "name": "x",
          "type": "uint8"
        },
        {
          "internalType": "uint8",
          "name": "y",
          "type": "uint8"
        }
      ],
      "name": "setStone",
      "outputs": [],
      "stateMutability": "nonpayable",
      "type": "function"
    },
    {
      "inputs": [
        {
          "internalType": "address payable",
          "name": "_to",
          "type": "address"
        }
      ],
      "name": "withdrawWin",
      "outputs": [],
      "stateMutability": "nonpayable",
      "type": "function"
    },
    {
      "inputs": [],
      "name": "emergencyCashout",
      "outputs": [],
      "stateMutability": "nonpayable",
      "type": "function"
    }
  ],
  "bytecode": "0x6080604052670de0b6b3a764000060015560b4601255604051611e2e380380611e2e83398181016040528101906100369190610199565b815f5f6101000a81548173ffffffffffffffffffffffffffffffffffffffff021916908373ffffffffffffffffffffffffffffffffffffffff16021790555060015434146100b9576040517f08c379a00000000000000000000000000000000000000000000000000000000081526004016100b090610257565b60405180910390fd5b8060025f6101000a81548173ffffffffffffffffffffffffffffffffffffffff021916908373ffffffffffffffffffffffffffffffffffffffff1602179055505050610275565b5f5ffd5b5f73ffffffffffffffffffffffffffffffffffffffff82169050919050565b5f61012d82610104565b9050919050565b61013d81610123565b8114610147575f5ffd5b50565b5f8151905061015881610134565b92915050565b5f61016882610104565b9050919050565b6101788161015e565b8114610182575f5ffd5b50565b5f815190506101938161016f565b92915050565b5f5f604083850312156101af576101ae610100565b5b5f6101bc8582860161014a565b92505060206101cd85828601610185565b9150509250929050565b5f82825260208201905092915050565b7f54686520616d6f756e74206f6620457468657220796f752073656e74206973205f8201527f6e6f7420656e6f7567682e000000000000000000000000000000000000000000602082015250565b5f610241602b836101d7565b915061024c826101e7565b604082019050919050565b5f6020820190508181035f83015261026e81610235565b9050919050565b611bac806102825f395ff3fe60806040526004361061007a575f3560e01c8063ae033dd01161004d578063ae033dd014610110578063cab896dc14610138578063d30895e414610162578063d4f77b1c1461018c5761007a565b8063216db3c21461007e5780633264a34b1461009457806359a5f12d146100be5780637d3f9074146100e8575b5f5ffd5b348015610089575f5ffd5b50610092610196565b005b34801561009f575f5ffd5b506100a86101c4565b6040516100b59190611553565b60405180910390f35b3480156100c9575f5ffd5b506100d261027b565b6040516100df919061158d565b60405180910390f35b3480156100f3575f5ffd5b5061010e600480360381019061010991906115e0565b6102a0565b005b34801561011b575f5ffd5b5061013660048036038101906101319190611648565b610aac565b005b348015610143575f5ffd5b5061014c610ccb565b604051610159919061168b565b60405180910390f35b34801561016d575f5ffd5b50610176610cd1565b604051610183919061158d565b60405180910390f35b610194610cf6565b005b42601154106101a3575f5ffd5b60075f9054906101000a900460ff166101ba575f5ffd5b6101c2610fc6565b565b6101cc611399565b6008600380602002604051908101604052809291905f905b828210156102725783826003020160038060200260405190810160405280929190826003801561025e576020028201915b815f9054906101000a900473ffffffffffffffffffffffffffffffffffffffff1673ffffffffffffffffffffffffffffffffffffffff1681526020019060010190808311610215575b5050505050815260200190600101906101e4565b50505050905090565b60035f9054906101000a900473ffffffffffffffffffffffffffffffffffffffff1681565b5f600390505f73ffffffffffffffffffffffffffffffffffffffff1660088460ff16600381106102d3576102d26116a4565b5b600302018360ff16600381106102ec576102eb6116a4565b5b015f9054906101000a900473ffffffffffffffffffffffffffffffffffffffff1673ffffffffffffffffffffffffffffffffffffffff161461032c575f5ffd5b60038360ff16106103405761033f6116d1565b5b8060ff168260ff1610610356576103556116d1565b5b60045f9054906101000a900473ffffffffffffffffffffffffffffffffffffffff1673ffffffffffffffffffffffffffffffffffffffff163373ffffffffffffffffffffffffffffffffffffffff16146103ae575f5ffd5b4260115410156103bc575f5ffd5b6004601481819054906101000a900460ff16809291906103db9061172b565b91906101000a81548160ff021916908360ff160217905550503360088460ff166003811061040c5761040b6116a4565b5b600302018360ff1660038110610425576104246116a4565b5b015f6101000a81548173ffffffffffffffffffffffffffffffffffffffff021916908373ffffffffffffffffffffffffffffffffffffffff1602179055505f5f90505b8160ff168160ff1610156105715760045f9054906101000a900473ffffffffffffffffffffffffffffffffffffffff1673ffffffffffffffffffffffffffffffffffffffff1660088260ff16600381106104c5576104c46116a4565b5b600302018460ff16600381106104de576104dd6116a4565b5b015f9054906101000a900473ffffffffffffffffffffffffffffffffffffffff1673ffffffffffffffffffffffffffffffffffffffff1603610571576001826105279190611753565b60ff168160ff16036105645761055d60045f9054906101000a900473ffffffffffffffffffffffffffffffffffffffff166111b3565b5050610aa8565b8080600101915050610468565b505f5f90505b8160ff168160ff1610156106805760045f9054906101000a900473ffffffffffffffffffffffffffffffffffffffff1673ffffffffffffffffffffffffffffffffffffffff1660088560ff16600381106105d4576105d36116a4565b5b600302018260ff16600381106105ed576105ec6116a4565b5b015f9054906101000a900473ffffffffffffffffffffffffffffffffffffffff1673ffffffffffffffffffffffffffffffffffffffff1603610680576001826106369190611753565b60ff168160ff16036106735761066c60045f9054906101000a900473ffffffffffffffffffffffffffffffffffffffff166111b3565b5050610aa8565b8080600101915050610577565b508160ff168360ff1603610798575f5f90505b8160ff168160ff1610156107965760045f9054906101000a900473ffffffffffffffffffffffffffffffffffffffff1673ffffffffffffffffffffffffffffffffffffffff1660088260ff16600381106106f0576106ef6116a4565b5b600302018260ff1660038110610709576107086116a4565b5b015f9054906101000a900473ffffffffffffffffffffffffffffffffffffffff1673ffffffffffffffffffffffffffffffffffffffff1603610796576001826107529190611753565b60ff168160ff16036107895761078860045f9054906101000a900473ffffffffffffffffffffffffffffffffffffffff166111b3565b5b8080600101915050610693565b505b6001816107a59190611753565b60ff1682846107b49190611787565b60ff16036108e3575f5f90505b8160ff168160ff1610156108e15760045f9054906101000a900473ffffffffffffffffffffffffffffffffffffffff1673ffffffffffffffffffffffffffffffffffffffff1660088260ff166003811061081e5761081d6116a4565b5b60030201826001856108309190611753565b61083a9190611753565b60ff166003811061084e5761084d6116a4565b5b015f9054906101000a900473ffffffffffffffffffffffffffffffffffffffff1673ffffffffffffffffffffffffffffffffffffffff16036108e1576001826108979190611753565b60ff168160ff16036108d4576108cd60045f9054906101000a900473ffffffffffffffffffffffffffffffffffffffff166111b3565b5050610aa8565b80806001019150506107c1565b505b6002816108f091906118ea565b60ff16600460149054906101000a900460ff1660ff16036109115750610aa8565b60025f9054906101000a900473ffffffffffffffffffffffffffffffffffffffff1673ffffffffffffffffffffffffffffffffffffffff1660045f9054906101000a900473ffffffffffffffffffffffffffffffffffffffff1673ffffffffffffffffffffffffffffffffffffffff16036109ec5760035f9054906101000a900473ffffffffffffffffffffffffffffffffffffffff1660045f6101000a81548173ffffffffffffffffffffffffffffffffffffffff021916908373ffffffffffffffffffffffffffffffffffffffff160217905550610a4e565b60025f9054906101000a900473ffffffffffffffffffffffffffffffffffffffff1660045f6101000a81548173ffffffffffffffffffffffffffffffffffffffff021916908373ffffffffffffffffffffffffffffffffffffffff1602179055505b7f637351f91da430278368fb3e486c8c3da47b2e6ce4d28b2c404cb044702ca7e160045f9054906101000a900473ffffffffffffffffffffffffffffffffffffffff16604051610a9e9190611970565b60405180910390a1505b5050565b5f60025f9054906101000a900473ffffffffffffffffffffffffffffffffffffffff1673ffffffffffffffffffffffffffffffffffffffff163373ffffffffffffffffffffffffffffffffffffffff1603610b9c575f60055411610b0e575f5ffd5b60055490505f6005819055508173ffffffffffffffffffffffffffffffffffffffff166108fc8290811502906040515f60405180830381858888f19350505050158015610b5d573d5f5f3e3d5ffd5b507f2a44162a2d5223e37cacacc3f626dcfee1396e0be3616534c5c7b718f786b6738282604051610b8f929190611989565b60405180910390a1610cc7565b60035f9054906101000a900473ffffffffffffffffffffffffffffffffffffffff1673ffffffffffffffffffffffffffffffffffffffff163373ffffffffffffffffffffffffffffffffffffffff1603610c8b575f60065411610bfd575f5ffd5b60065490505f6006819055508173ffffffffffffffffffffffffffffffffffffffff166108fc8290811502906040515f60405180830381858888f19350505050158015610c4c573d5f5f3e3d5ffd5b507f2a44162a2d5223e37cacacc3f626dcfee1396e0be3616534c5c7b718f786b6738282604051610c7e929190611989565b60405180910390a1610cc6565b6040517f08c379a0000000000000000000000000000000000000000000000000000000008152600401610cbd90611a0a565b60405180910390fd5b5b5050565b60015481565b60025f9054906101000a900473ffffffffffffffffffffffffffffffffffffffff1681565b5f73ffffffffffffffffffffffffffffffffffffffff1660035f9054906101000a900473ffffffffffffffffffffffffffffffffffffffff1673ffffffffffffffffffffffffffffffffffffffff1614610d5357610d526116d1565b5b60075f9054906101000a900460ff16610d6a575f5ffd5b5f151560075f9054906101000a900460ff16151514610d87575f5ffd5b6001543414610dcb576040517f08c379a0000000000000000000000000000000000000000000000000000000008152600401610dc290611a98565b60405180910390fd5b3360035f6101000a81548173ffffffffffffffffffffffffffffffffffffffff021916908373ffffffffffffffffffffffffffffffffffffffff1602179055507f31e760aa525306aba638a784082a013b6a1cc0a9a1789f3f22281c0453b10b1f60035f9054906101000a900473ffffffffffffffffffffffffffffffffffffffff16604051610e5b9190611970565b60405180910390a15f600243610e719190611ae3565b03610edc5760035f9054906101000a900473ffffffffffffffffffffffffffffffffffffffff1660045f6101000a81548173ffffffffffffffffffffffffffffffffffffffff021916908373ffffffffffffffffffffffffffffffffffffffff160217905550610f3e565b60025f9054906101000a900473ffffffffffffffffffffffffffffffffffffffff1660045f6101000a81548173ffffffffffffffffffffffffffffffffffffffff021916908373ffffffffffffffffffffffffffffffffffffffff1602179055505b600160075f6101000a81548160ff02191690831515021790555060125442610f669190611b13565b6011819055507f637351f91da430278368fb3e486c8c3da47b2e6ce4d28b2c404cb044702ca7e160045f9054906101000a900473ffffffffffffffffffffffffffffffffffffffff16604051610fbc9190611970565b60405180910390a1565b5f600247610fd49190611b46565b90505f151560025f9054906101000a900473ffffffffffffffffffffffffffffffffffffffff1673ffffffffffffffffffffffffffffffffffffffff166108fc8390811502906040515f60405180830381858888f19350505050151503611052578060055f8282546110469190611b13565b925050819055506110ad565b7f2a44162a2d5223e37cacacc3f626dcfee1396e0be3616534c5c7b718f786b67360025f9054906101000a900473ffffffffffffffffffffffffffffffffffffffff16826040516110a4929190611989565b60405180910390a15b5f151560035f9054906101000a900473ffffffffffffffffffffffffffffffffffffffff1673ffffffffffffffffffffffffffffffffffffffff166108fc8390811502906040515f60405180830381858888f19350505050151503611129578060065f82825461111d9190611b13565b92505081905550611184565b7f2a44162a2d5223e37cacacc3f626dcfee1396e0be3616534c5c7b718f786b67360035f9054906101000a900473ffffffffffffffffffffffffffffffffffffffff168260405161117b929190611989565b60405180910390a15b7f2207d46a2ba0f2acda06e9a222b40fd004e385738b3f868e63b2c0bfe4bc094c60405160405180910390a150565b5f60075f6101000a81548160ff0219169083151502179055505f5f9054906101000a900473ffffffffffffffffffffffffffffffffffffffff1673ffffffffffffffffffffffffffffffffffffffff1663d2add17b826040518263ffffffff1660e01b81526004016112259190611970565b5f604051808303815f87803b15801561123c575f5ffd5b505af115801561124e573d5f5f3e3d5ffd5b505050505f479050600115158273ffffffffffffffffffffffffffffffffffffffff166108fc8390811502906040515f60405180830381858888f193505050501515146113245760025f9054906101000a900473ffffffffffffffffffffffffffffffffffffffff1673ffffffffffffffffffffffffffffffffffffffff168273ffffffffffffffffffffffffffffffffffffffff1603611306578060055f8282546112fa9190611b13565b9250508190555061131f565b8060065f8282546113179190611b13565b925050819055505b61135e565b7f2a44162a2d5223e37cacacc3f626dcfee1396e0be3616534c5c7b718f786b6738282604051611355929190611989565b60405180910390a15b7f8245a3876d42d9b0bdb7f24184c03fc24e3d8a079f492b1ec9ceae70b366edf98260405161138d9190611970565b60405180910390a15050565b60405180606001604052806003905b6113b06113c6565b8152602001906001900390816113a85790505090565b6040518060600160405280600390602082028036833780820191505090505090565b5f60039050919050565b5f81905092915050565b5f819050919050565b5f60039050919050565b5f81905092915050565b5f819050919050565b5f73ffffffffffffffffffffffffffffffffffffffff82169050919050565b5f61144b82611422565b9050919050565b61145b81611441565b82525050565b5f61146c8383611452565b60208301905092915050565b5f602082019050919050565b61148d81611405565b611497818461140f565b92506114a282611419565b805f5b838110156114d25781516114b98782611461565b96506114c483611478565b9250506001810190506114a5565b505050505050565b5f6114e58383611484565b60608301905092915050565b5f602082019050919050565b611506816113e8565b61151081846113f2565b925061151b826113fc565b805f5b8381101561154b57815161153287826114da565b965061153d836114f1565b92505060018101905061151e565b505050505050565b5f610120820190506115675f8301846114fd565b92915050565b5f61157782611422565b9050919050565b6115878161156d565b82525050565b5f6020820190506115a05f83018461157e565b92915050565b5f5ffd5b5f60ff82169050919050565b6115bf816115aa565b81146115c9575f5ffd5b50565b5f813590506115da816115b6565b92915050565b5f5f604083850312156115f6576115f56115a6565b5b5f611603858286016115cc565b9250506020611614858286016115cc565b9150509250929050565b6116278161156d565b8114611631575f5ffd5b50565b5f813590506116428161161e565b92915050565b5f6020828403121561165d5761165c6115a6565b5b5f61166a84828501611634565b91505092915050565b5f819050919050565b61168581611673565b82525050565b5f60208201905061169e5f83018461167c565b92915050565b7f4e487b71000000000000000000000000000000000000000000000000000000005f52603260045260245ffd5b7f4e487b71000000000000000000000000000000000000000000000000000000005f52600160045260245ffd5b7f4e487b71000000000000000000000000000000000000000000000000000000005f52601160045260245ffd5b5f611735826115aa565b915060ff8203611748576117476116fe565b5b600182019050919050565b5f61175d826115aa565b9150611768836115aa565b9250828203905060ff811115611781576117806116fe565b5b92915050565b5f611791826115aa565b915061179c836115aa565b9250828201905060ff8111156117b5576117b46116fe565b5b92915050565b5f8160011c9050919050565b5f5f8291508390505b6001851115611810578086048111156117ec576117eb6116fe565b5b60018516156117fb5780820291505b8081029050611809856117bb565b94506117d0565b94509492505050565b5f8261182857600190506118e3565b81611835575f90506118e3565b816001811461184b576002811461185557611884565b60019150506118e3565b60ff841115611867576118666116fe565b5b8360020a91508482111561187e5761187d6116fe565b5b506118e3565b5060208310610133831016604e8410600b84101617156118b95782820a9050838111156118b4576118b36116fe565b5b6118e3565b6118c684848460016117c7565b925090508184048111156118dd576118dc6116fe565b5b81810290505b9392505050565b5f6118f4826115aa565b91506118ff836115aa565b925061190d60ff8484611819565b905092915050565b5f819050919050565b5f61193861193361192e84611422565b611915565b611422565b9050919050565b5f6119498261191e565b9050919050565b5f61195a8261193f565b9050919050565b61196a81611950565b82525050565b5f6020820190506119835f830184611961565b92915050565b5f60408201905061199c5f830185611961565b6119a9602083018461167c565b9392505050565b5f82825260208201905092915050565b7f496e76616c696420706c617965720000000000000000000000000000000000005f82015250565b5f6119f4600e836119b0565b91506119ff826119c0565b602082019050919050565b5f6020820190508181035f830152611a21816119e8565b9050919050565b7f54686520616d6f756e74206f6620457468657220796f752073656e74206973205f8201527f6e6f7420656e6f7567682e000000000000000000000000000000000000000000602082015250565b5f611a82602b836119b0565b9150611a8d82611a28565b604082019050919050565b5f6020820190508181035f830152611aaf81611a76565b9050919050565b7f4e487b71000000000000000000000000000000000000000000000000000000005f52601260045260245ffd5b5f611aed82611673565b9150611af883611673565b925082611b0857611b07611ab6565b5b828206905092915050565b5f611b1d82611673565b9150611b2883611673565b9250828201905080821115611b4057611b3f6116fe565b5b92915050565b5f611b5082611673565b9150611b5b83611673565b925082611b6b57611b6a611ab6565b5b82820490509291505056fea264697066735822122052baee4e661bdba566d3710a847947e8128dbf5897564b6a550a1f925153a57e64736f6c634300081e0033",
  "immutableReferences": {},
  "source": "pragma solidity ^0.8.30;\r\n\r\n// SPDX-License-Identifier: MIT\r\n\r\nimport {GameManager} from \"./GameManager.sol\";\r\n\r\ncontract ThreeInARow {\r\n    \r\n    GameManager gameManager;\r\n\r\n    uint256 public gameCost = 1 ether;\r\n\r\n    address payable public player1;\r\n    address payable public player2;\r\n\r\n    address payable activePlayer;\r\n\r\n    event PlayerJoined(address _player);\r\n    event NextPlayer(address _player);\r\n\r\n    event GameOverWithWin(address _winner);\r\n    event GameOverWithDraw();\r\n    event PayoutSuccess(address _receiver, uint _amountInWei);\r\n    \r\n    uint8 moveCounter;\r\n\r\n    uint balanceToWithdrawPlayer1;\r\n    uint balanceToWithdrawPlayer2;\r\n\r\n    bool gameActive;\r\n\r\n    address[3][3] gameBoard;\r\n\r\n    uint gameVaildUntil;\r\n    uint timeToReact = 3 minutes;\r\n\r\n    constructor(address _addrGameManager, address payable _player1) payable {\r\n        gameManager = GameManager(_addrGameManager);\r\n        require(msg.value == gameCost, \"The amount of Ether you sent is not enough.\");\r\n        player1 = _player1;\r\n    }\r\n\r\n    function joinGame() public payable {\r\n        //player2 joins the game here\r\n        assert(player2 == address(0x0));\r\n        require(gameActive);\r\n        require(gameActive == false);\r\n        require(msg.value == gameCost, \"The amount of Ether you sent is not enough.\");\r\n\r\n        player2 = payable(msg.sender);\r\n        emit PlayerJoined(player2);\r\n\r\n        if(block.number % 2 == 0) {\r\n            activePlayer = player2;\r\n        } else {\r\n            activePlayer = player1;\r\n        }\r\n\r\n        gameActive = true;\r\n\r\n        gameVaildUntil = block.timestamp + timeToReact;\r\n\r\n        emit NextPlayer(activePlayer);\r\n    }\r\n\r\n    function getBoard() public view returns(address[3][3] memory) {\r\n        return gameBoard;\r\n    }\r\n\r\n    function setStone(uint8 x, uint8 y) public {\r\n        uint8 boardSize = uint8(gameBoard.length);\r\n        require(gameBoard[x][y] == address(0));\r\n        assert(x < 3);\r\n        assert(y < boardSize);\r\n        require(msg.sender == activePlayer);\r\n        require(gameVaildUntil >= block.timestamp);\r\n        moveCounter++;\r\n        gameBoard[x][y] = msg.sender;\r\n\r\n        for(uint8 i = 0; i < boardSize; i++) {\r\n            if(gameBoard[i][y] != activePlayer) {\r\n                break;\r\n            }\r\n\r\n            if(i == boardSize - 1) {\r\n                setWinner(activePlayer);\r\n                return;\r\n            }\r\n        }\r\n\r\n        for(uint8 i = 0; i < boardSize; i++) {\r\n            if(gameBoard[x][i] != activePlayer) {\r\n                break;\r\n            }\r\n\r\n            if(i == boardSize - 1) {\r\n                setWinner(activePlayer);\r\n                return;\r\n            }\r\n        }\r\n\r\n        //diagonal\r\n        if(x == y) {\r\n            for(uint8 i = 0; i < boardSize; i++) {\r\n                if(gameBoard[i][i] != activePlayer) {\r\n                    break;\r\n                }\r\n\r\n                if(i == boardSize-1) {\r\n                    setWinner(activePlayer);\r\n                }\r\n            }\r\n        }\r\n\r\n        //anti diagonal\r\n        if((x+y) == boardSize-1) {\r\n            for(uint8 i = 0; i < boardSize; i++) {\r\n                if(gameBoard[i][(boardSize-1)-i] != activePlayer) {\r\n                    break;\r\n                }\r\n\r\n                if(i == boardSize-1) {\r\n                    setWinner(activePlayer);\r\n                    return;\r\n                }\r\n            }\r\n        }\r\n\r\n        //check if it's a draw\r\n        if(moveCounter == boardSize**2) {\r\n            setDraw;\r\n            return;\r\n        }\r\n\r\n         if(activePlayer == player1) {\r\n            activePlayer = player2;\r\n        } else {\r\n            activePlayer = player1;\r\n        }\r\n\r\n        emit NextPlayer(activePlayer);\r\n        //we set the stone here\r\n    }\r\n\r\n    function setWinner(address payable _player) private {\r\n        gameActive = false;\r\n        gameManager.enterWinner(_player);\r\n        uint balanceToPayOut = address(this).balance;\r\n        if(_player.send(balanceToPayOut) != true) {\r\n            if(_player == player1) {\r\n                balanceToWithdrawPlayer1 += balanceToPayOut;\r\n            } else {\r\n                balanceToWithdrawPlayer2 += balanceToPayOut;\r\n            }\r\n        } else {\r\n            emit PayoutSuccess(_player, balanceToPayOut);\r\n        }\r\n\r\n\r\n\r\n        emit GameOverWithWin(_player);\r\n    }\r\n\r\n    function setDraw() private {\r\n        uint balanceToPayOut = address(this).balance / 2;\r\n\r\n        if(player1.send(balanceToPayOut) == false) {\r\n            balanceToWithdrawPlayer1 += balanceToPayOut;\r\n        } else {\r\n            emit PayoutSuccess(player1, balanceToPayOut);\r\n        }\r\n        if(player2.send(balanceToPayOut) == false) {\r\n            balanceToWithdrawPlayer2 += balanceToPayOut;\r\n        } else {\r\n            emit PayoutSuccess(player2, balanceToPayOut);\r\n        }\r\n\r\n        emit GameOverWithDraw();\r\n    }\r\n\r\n    function withdrawWin(address payable _to) public {\r\n        uint balanceToWithdraw;\r\n        if(msg.sender == player1) {\r\n            require(balanceToWithdrawPlayer1 > 0);\r\n            balanceToWithdraw = balanceToWithdrawPlayer1;\r\n            balanceToWithdrawPlayer1 = 0;\r\n            _to.transfer(balanceToWithdraw);\r\n            emit PayoutSuccess(_to, balanceToWithdraw);\r\n        }\r\n\r\n        else if(msg.sender == player2) {\r\n            require(balanceToWithdrawPlayer2 > 0);\r\n            balanceToWithdraw = balanceToWithdrawPlayer2;\r\n            balanceToWithdrawPlayer2 = 0;\r\n            _to.transfer(balanceToWithdraw);\r\n            emit PayoutSuccess(_to, balanceToWithdraw);\r\n        }\r\n\r\n        else {\r\n            revert(\"Invalid player\");\r\n        }\r\n    }\r\n\r\n    function emergencyCashout() public {\r\n        require(gameVaildUntil < block.timestamp);\r\n        require(gameActive);\r\n        setDraw();\r\n    }\r\n}",
  "sourcePath": "C:\\Users\\Lenovo\\OneDrive\\Desktop\\Solidity Codes\\contracts\\ThreeInARow.sol",
  "compiler": {
    "name": "solc",
    "version": "0.8.30+commit.73712a01.Emscripten.clang"
  },
  "schemaVersion": "3.4.16",
  "updatedAt": "2025-06-21T08:05:04.097Z",
  "devdoc": {
    "kind": "dev",
    "methods": {},
    "version": 1
  },
  "userdoc": {
    "kind": "user",
    "methods": {},
    "version": 1
  }
}